:100000000C9434000C9451000C9451000C949F03F8
:100010000C9451000C94D5030C9451000C94510095
:100020000C9451000C9451000C9451000C9451000C
:100030000C9451000C9451000C9451000C945100FC
:100040000C9488030C9451000C9451000C943D01C5
:100050000C94E5000C9451000C9451000C94510048
:100060000C940B040C94510011241FBECFEFD8E068
:10007000DEBFCDBF11E0A0E0B1E0ECE7F1E102C0EE
:1000800005900D92A633B107D9F722E0A6E3B1E0BF
:1000900001C01D92A236B207E1F70E9476010C94CE
:1000A000BC080C94000089E190E09093C500809317
:1000B000C4008EE08093C2000895E1ECF0E08081FE
:1000C000886480830895E0910701F091080181938D
:1000D00082E0EC33F80710F0ECE3F1E02091070147
:1000E000309108018091090190910A012817390780
:1000F00029F4A1ECB0E08C9180628C93F09308011C
:10010000E09307018091380190913901A0913A0163
:10011000B0913B010196A11DB11D809338019093D0
:100120003901A0933A01B0933B010895CF93DF9337
:10013000EC01E1ECF0E080818F7B80838881882373
:1001400031F021960E94630089918111FBCFE1EC8F
:10015000F0E0808180648083DF91CF910895E09109
:100160000901F0910A018091070190910801E817B7
:10017000F90751F180818093C60080910901909127
:100180000A01019622E08C33920728F490930A0129
:100190008093090106C08CE391E090930A0180935B
:1001A00009018091380190913901A0913A01B091F3
:1001B0003B010197A109B10980933801909339015E
:1001C000A0933A01B0933B0108951F920F920FB68E
:1001D0000F9211242F933F934F935F936F937F93CD
:1001E0008F939F93AF93BF93EF93FF930E94AF00C2
:1001F000FF91EF91BF91AF919F918F917F916F91FF
:100200005F914F913F912F910F900FBE0F901F90D4
:100210001895E0910901F0910A0180818093C60050
:100220008091090190910A01019622E08C33920796
:1002300028F490930A018093090106C08CE391E0B1
:1002400090930A0180930901E1ECF0E080818F7DB9
:1002500080838091380190913901A0913A01B09149
:100260003B010197A109B1098093380190933901AD
:10027000A0933A01B0933B0108951F920F920FB6DD
:100280000F9211242F933F934F935F936F937F931C
:100290008F939F93AF93BF93EF93FF930E940901B6
:1002A000FF91EF91BF91AF919F918F917F916F914E
:1002B0005F914F913F912F910F900FBE0F901F9024
:1002C00018950F931F93CF93DF93182F062FEA01F2
:1002D00084E090E00E94B704FC0100831183D38383
:1002E000C283DF91CF911F910F910895CF93DF9338
:1002F000CDB7DEB764970FB6F894DEBF0FBECDBFA3
:1003000089E080933C0282E190E00E94B7048C0176
:10031000909355028093540246E051E060E081E002
:100320000E946101D8018D939C930F2EF6E5AF2EAC
:10033000F2E0BF2EF02D0F2EFEE5EF2EF2E0FF2EA5
:10034000F02D850188E090E00E94B704FC01D801FF
:100350008D939D938D011682158214821782AE159E
:10036000BF0581F793EF94BD82E085BD21E0209326
:100370006E00E6E5F2E0A081B18127E430E02D9344
:100380003C93A281B38128E430E02D933C93909379
:10039000B0008093B100A481B58183EB90E08D9390
:1003A0009C93A681B78184EB90E08D939C9388E029
:1003B00084B988E68AB9A081B1810D90BC91A02D45
:1003C0001C92A281B3810D90BC91A02D1C92A4819E
:1003D000B5810D90BC91A02D1C920680F781E02D77
:1003E0000190F081E02D108290EC95B984E18BB9F9
:1003F00025E02093680090936B0080936D0085E466
:100400008093BC0084E58093BA00EDE3F2E0808144
:10041000897F8E7F808380E492E0948B838B968BA0
:10042000858B06E512E0772473946894EE24E1F856
:10043000F12CC0905402D0905502CE0CDF1CD80194
:10044000ED91FC9140815181602F6A1981E00E94F9
:100450006101F60191838083C7010296C090540226
:10046000D0905502C80ED91EF801408151810E5F0F
:100470001F4F4E5F5F4F672D82E00E946101D601E2
:100480008D939C93B4E0EB0EF11C73947394E9E0AC
:100490007E12CFCF209A0E9453000E945D008BE015
:1004A00091E00E949600E0915402F0915502019073
:1004B000F081E02D0280F381E02D80811F928F93E7
:1004C00088E191E09F938F938E010F5F1F4F1F93E1
:1004D0000F930E94E405C8010E94960078940F9043
:1004E0000F900F900F900F900F90DD24D3943A2C23
:1004F0004B2C512C612C0F2EF7E2AF2EF1E0BF2ECA
:10050000F02D4801702EC92C85B18D2585B983B792
:10051000817F83BF23B7216023BF889580913601F7
:1005200090913701873C9D4279F7E32CF42C052DFF
:10053000162DA701D701ED91FC9111978581968128
:100540009C01220F331F220F331F820F931F9383AF
:100550008283ED91FD917D0116821582DA01ED9184
:10056000FC9183818F9382818F931F930F93BF920E
:10057000AF929F928F920E94E405872D9C2D0E943E
:1005800096000F5F1F4F0FB6F894DEBF0FBECDBFB2
:100590000430110571F65092360160923701B4CFE4
:1005A000FC01DB012C9130E002C0359527954A957E
:1005B000E2F721708781821731F08581968101965B
:1005C0009683858327830895CF93DF936623F1F085
:1005D000DC016150462F50E04F5F5F4F480F591FBD
:1005E000EDE3F2E060E472E0C589D6899D919883DD
:1005F000258936892F5F3F4F368B258B205532401A
:1006000011F4768B658BA417B50771F7DF91CF9145
:100610000895EDE3F2E0A389B4892C91DC012C93D9
:1006200083899489258936898217930799F00196E1
:10063000B2E080359B0731F09093510280935002D5
:1006400080E0089580E492E09093510280935002FC
:1006500080E0089581E00895EDE3F2E085899689D0
:10066000948B838B08950F931F93CF9390913C02AB
:10067000891720F5082F10E0000F111FE091540298
:10068000F0915502E00FF11F0190F081E02D818182
:100690008823A1F0C0E0828193818C0F911D0E947C
:1006A0000903CF5FE0915402F0915502E00FF11F72
:1006B0000190F081E02D9181C91768F3CF911F91CE
:1006C0000F910895EDE3F2E081E043895489258993
:1006D00036894217530709F080E0089590913C0253
:1006E0008917A0F4E82FF0E0EE0FFF1F809154026D
:1006F00090915502E80FF91F0190F081E02D618182
:10070000828193810E94E40280E0089581E008954F
:100710001F920F920FB60F9211248F939F93809187
:1007200036019091370101969093370180933601FD
:100730009F918F910F900FBE0F901F9018951F9251
:100740000F920FB60F9211242F933F934F935F9305
:100750006F937F938F939F93AF93BF93CF93DF93C9
:10076000EF93FF93C6E5D2E046E063E270E0888154
:1007700099810E94D00247E063E270E08A819B8108
:100780000E94D002FF91EF91DF91CF91BF91AF9185
:100790009F918F917F916F915F914F913F912F9199
:1007A0000F900FBE0F901F9018951F920F920FB6CB
:1007B0000F9211242F933F934F935F936F937F93E7
:1007C0008F939F93AF93BF93CF93DF93EF93FF9359
:1007D000C6E5D2E042E069E270E08C819D810E9432
:1007E000D00244E069E270E08E819F810E94D002D5
:1007F000FF91EF91DF91CF91BF91AF919F918F9139
:100800007F916F915F914F913F912F910F900FBE0C
:100810000F901F9018951F920F920FB60F921124F0
:100820002F933F934F935F936F937F938F939F93F8
:10083000AF93BF93CF93DF93EF93FF938091B90072
:10084000887F90913D0290FD4FC0803861F0803AE2
:1008500079F18036D9F5EDE3F2E0892F897F826066
:10086000808312826CC0EDE3F2E082818F5F82832D
:1008700080818695837090E08130910519F0029710
:1008800059F010C08091BB00EDE3F2E081838081DC
:10089000897F8460808353C061E08BEB90E00E948D
:1008A000E4024DC0EDE3F2E08081897F808347C0A0
:1008B00080913F02813031F4EDE3F2E0808181608C
:1008C000808304C080913E020E943303ECEBF0E091
:1008D000808180648083CDE3D2E01A820E942C0361
:1008E0008881897F88832BC0883A19F0883B51F032
:1008F00019C0CDE3D2E089810E946E038881897F8F
:10090000846088838BEB90E00E940903811104C00E
:100910000E946203882399F0ECEBF0E080818F7BEA
:1009200080830DC00E942C03ECEBF0E0808180649A
:100930008083EDE3F2E08081887F80831282ECEB9C
:10094000F0E0808180688083FF91EF91DF91CF910B
:10095000BF91AF919F918F917F916F915F914F91D7
:100960003F912F910F900FBE0F901F901895CF932E
:10097000DF938230910510F482E090E0E091600214
:10098000F091610220E030E0C0E0D0E0309711F15A
:100990004081518148175907C0F04817590761F441
:1009A00082819381209719F09B838A832BC0909337
:1009B00061028093600226C02115310519F04217AB
:1009C000530718F49A01BE01DF01EF010280F381A1
:1009D000E02DDCCF2115310509F1281B390B24301E
:1009E000310590F412968D919C91139761157105C4
:1009F00021F0FB019383828304C090936102809372
:100A00006002FD01329644C0FD01E20FF31F8193A5
:100A10009193225031092D933C933AC020915E026C
:100A200030915F02232B41F42091020130910301A8
:100A300030935F0220935E0220910001309101010A
:100A40002115310541F42DB73EB740910401509175
:100A50000501241B350BE0915E02F0915F02E21765
:100A6000F307A0F42E1B3F0B2817390778F0AC01D1
:100A70004E5F5F4F2417350748F04E0F5F1F5093AE
:100A80005F0240935E028193919302C0E0E0F0E048
:100A9000CF01DF91CF9108950F931F93CF93DF93F1
:100AA000009709F48CC0FC013297138212820091E6
:100AB0006002109161020115110581F420813181DC
:100AC000820F931F20915E0230915F022817390731
:100AD00079F5F0935F02E0935E0271C0D80140E0C7
:100AE00050E0AE17BF0750F412962D913C9113972A
:100AF000AD012115310509F1D901F3CF9D01DA01CD
:100B00003383228360817181860F971F8217930739
:100B100069F4EC0128813981260F371F2E5F3F4F82
:100B2000318320838A819B8193838283452B29F49F
:100B3000F0936102E093600242C01396FC93EE933F
:100B40001297ED01499159919E01240F351FE2172B
:100B5000F30771F480819181840F951F029611969D
:100B60009C938E938281938113969C938E9312977C
:100B7000E0E0F0E0D80112968D919C9113970097D8
:100B800019F0F8018C01F6CF8D919C9198012E5FA0
:100B90003F4F820F931F20915E0230915F02281712
:100BA000390769F4309729F41092610210926002BB
:100BB00002C01382128210935F0200935E02DF91E3
:100BC000CF911F910F910895AEE0B0E0EAEEF5E00D
:100BD0000C9493080D891E8986E08C831A830983FF
:100BE0008FEF9FE79E838D83AE01475E5F4F6F89D6
:100BF000788DCE0101960E9407062F813885F80175
:100C0000E20FF31F10822E96E4E00C94AF08ACE0E4
:100C1000B0E0EDE0F6E00C9485087C016B018A0100
:100C2000FC0117821682838181FFBDC1CE0101962E
:100C30004C01F7019381F60193FD859193FF81911A
:100C40006F01882309F4ABC1853239F493FD859196
:100C500093FF81916F01853229F4B70190E00E94E2
:100C6000EF07E7CF512C312C20E02032A0F48B325B
:100C700069F030F4803259F0833269F420612CC07D
:100C80008D3239F0803339F4216026C0226024602F
:100C900023C0286021C027FD27C030ED380F3A302F
:100CA00078F426FF06C0FAE05F9E300D1124532E23
:100CB00013C08AE0389E300D1124332E20620CC000
:100CC0008E3221F426FD6BC1206406C08C3611F4EF
:100CD000206802C0883641F4F60193FD859193FFA8
:100CE00081916F018111C1CF982F9F7D95549330D1
:100CF00028F40C5F1F4FFFE3F9830DC0833631F0FA
:100D0000833771F0833509F05BC022C0F801808120
:100D100089830E5F1F4F44244394512C540115C006
:100D20003801F2E06F0E711CF801A080B18026FF3F
:100D300003C0652D70E002C06FEF7FEFC5012C8707
:100D40000E94E4072C0183012C852F77222E17C0E7
:100D50003801F2E06F0E711CF801A080B18026FF0F
:100D600003C0652D70E002C06FEF7FEFC5012C87D7
:100D70000E94D9072C012C852068222E830123FC98
:100D80001BC0832D90E048165906B0F4B70180E2ED
:100D900090E00E94EF073A94F4CFF50127FC85918B
:100DA00027FE81915F01B70190E00E94EF073110AB
:100DB0003A94F1E04F1A51084114510471F7E5C01B
:100DC000843611F0893639F5F80127FF07C06081B4
:100DD0007181828193810C5F1F4F08C06081718196
:100DE000072E000C880B990B0E5F1F4F2F76722E6B
:100DF00097FF09C090958095709561957F4F8F4FB3
:100E00009F4F2068722E2AE030E0A4010E9427083C
:100E1000A82EA81844C0853729F42F7EB22E2AE0C8
:100E200030E025C0F22FF97FBF2E8F36C1F018F4C5
:100E3000883579F0B4C0803719F0883721F0AFC019
:100E40002F2F2061B22EB4FE0DC08B2D8460B82EE2
:100E500009C024FF0AC09F2F9660B92E06C028E063
:100E600030E005C020E130E002C020E132E0F801CE
:100E7000B7FE07C060817181828193810C5F1F4F33
:100E800006C06081718180E090E00E5F1F4FA40179
:100E90000E942708A82EA818FB2DFF777F2E76FE2C
:100EA0000BC0372D3E7FA51450F474FE0AC072FCAF
:100EB00008C0372D3E7E05C0BA2C372D03C0BA2C92
:100EC00001C0B52C34FF0DC0FE01EA0DF11D80817B
:100ED000803311F4397E09C032FF06C0B394B39455
:100EE00004C0832F867809F0B39433FD13C030FF1C
:100EF00006C05A2CB31418F4530C5B18B32CB3145B
:100F000068F4B70180E290E03C870E94EF07B39459
:100F10003C85F5CFB31410F43B1801C0312C34FFDD
:100F200012C0B70180E390E03C870E94EF073C8548
:100F300032FF17C031FD03C088E790E002C088E5AA
:100F400090E0B7010CC0832F867859F031FF02C0C2
:100F50008BE201C080E237FD8DE2B70190E00E9494
:100F6000EF07A51438F4B70180E390E00E94EF0783
:100F70005A94F7CFAA94F401EA0DF11D8081B701CC
:100F800090E00E94EF07A110F5CF332009F451CE75
:100F9000B70180E290E00E94EF073A94F6CFF701A4
:100FA0008681978102C08FEF9FEF2C96E2E10C942F
:100FB000A108FC010590615070400110D8F78095A0
:100FC00090958E0F9F1F0895FC0161507040019015
:100FD0000110D8F7809590958E0F9F1F08950F935D
:100FE0001F93CF93DF93FB01238121FD03C08FEF7C
:100FF0009FEF28C022FF16C046815781248135818A
:101000004217530744F4A081B1819D012F5F3F4FE8
:10101000318320838C93268137812F5F3F4F378325
:10102000268310C0EB01092F182F0084F185E02DD5
:101030000995892BE1F68E819F8101969F838E838E
:10104000812F902FDF91CF911F910F910895FA0179
:10105000AA27283051F1203181F1E8946F936E7FF7
:101060006E5F7F4F8F4F9F4FAF4FB1E03ED0B4E0E8
:101070003CD0670F781F891F9A1FA11D680F791F29
:101080008A1F911DA11D6A0F711D811D911DA11D3A
:1010900020D009F468943F912AE0269F112430194A
:1010A000305D3193DEF6CF010895462F4770405DE5
:1010B0004193B3E00FD0C9F7F6CF462F4F70405D94
:1010C0004A3318F0495D31FD4052419302D0A9F7EF
:1010D000EACFB4E0A6959795879577956795BA95E9
:1010E000C9F700976105710508959B01AC010A2EAF
:1010F00006945795479537952795BA95C9F7620F86
:10110000731F841F951FA01D08952F923F924F9229
:101110005F926F927F928F929F92AF92BF92CF9287
:10112000DF92EF92FF920F931F93CF93DF93CDB790
:10113000DEB7CA1BDB0B0FB6F894DEBF0FBECDBF08
:1011400009942A88398848885F846E847D848C84D9
:101150009B84AA84B984C884DF80EE80FD800C81E2
:101160001B81AA81B981CE0FD11D0FB6F894DEBFC5
:0C1170000FBECDBFED010895F894FFCF35
:10117C00000062022000043C013C0148656C6C6F6D
:10118C0020576F726C640A004E756D2066616E7329
:10119C0020202575200A0046414E25753A202575DC
:0611AC002072706D0A00C4
:00000001FF
